:100000000C943D000C946C040C946C040C946C04E3
:100010000C946C040C946C040C946C040C946C04A0
:100020000C946C040C946C040C946C040C946C0490
:100030000C946C040C946C040C946C040C946C0480
:100040000C946C040C946C040C946C040C946C0470
:100050000C946C040C946C040C946C040C946C0460
:100060000C946C040C946C04010001448001440164
:10007000450008DC01450147800011241FBECFEF79
:10008000D4E0DEBFCDBFE8E6F0E040E017C0B591B8
:10009000A59135912591059107FD0CC0959185910C
:1000A000EF01F92FE82F05900D92A217B307D9F7AA
:1000B000FE0104C01D92A217B307E1F7E937F40768
:1000C00031F70E9465000C94A601F894112484B7BE
:1000D00014BE982F9D7011F00E94460411E0A0E01C
:1000E000B1E0E0E5F3E002C005900D92A030B10769
:1000F000D9F711E0A0E0B1E001C01D92A030B10736
:10010000E1F78AB183608AB98BB18C7F8BB982E0C9
:100110008093C00088E18093C10086E08093C20094
:1001200088E08093C4000E943A028EE00E945C0442
:1001300000E010E00E94A8018134A9F40E94A80107
:10014000C82F0E942A04C23821F480E00E942103B3
:10015000F9C0C13821F485E00E942103F3C083E097
:100160000E942103EFC0823441F4C4E10E94A8013F
:10017000C150E1F70E942A04E5C0853441F4C5E08E
:100180000E94A801C150E1F70E942A04DBC0853516
:1001900089F40E94A801C82FD0E00E94A801082F6E
:1001A00010E0102F00270C2B1D2B000F111F0E9499
:1001B0002A04C8C0863559F4C4E00E94A801C15081
:1001C000E1F70E942A0480E00E942103BBC084362C
:1001D00009F077C00E94A8010E94A801F82E0E9491
:1001E000A801E82E86E4E8120BC00115E8E31E071B
:1001F00050F483E0F80187BFE895C0E8D1E005C07E
:10020000C0E8D1E002C0C0E8D1E06E01FFEFCF1A34
:10021000DF0A0E94A8018883FA94E601F110F5CF65
:1002200086E4E8122FC00115E8E31E0720F083E002
:10023000F80187BFE8950E942A0407B600FCFDCFAD
:10024000F801A0E8B1E020E43C91AD014E5F5F4FC2
:1002500011968C9190E0982F8827832B31E00C0128
:1002600037BFE895112432962150DA0169F785E00D
:10027000F80187BFE89507B600FCFDCF81E187BF95
:10028000E89560C0F5E4EF125DC00E942A0490E892
:100290009C0D9801E0E8F1E00EC0A895EF012196D1
:1002A00079018FEFE81AF80A6081C9010E94F20310
:1002B0009D2D9701FE01DD24DA94D90E9111EDCF29
:1002C00041C0843739F50E94A8010E94A801C82FB7
:1002D0000E94A801D82F0E942A04D63441F4F801C4
:1002E00085918F010E942103C150C9F72BC0D534DD
:1002F00049F50BC07801EFEFEE1AFE0AC8010E9423
:1003000034040E942103CD2F8701DFEFDC0FC111E0
:10031000F1CF18C0853761F40E942A048EE10E9453
:10032000210384E90E94210386E00E9421030AC080
:10033000813531F488E00E945C040E942A0402C0E6
:100340000E942A0480E10E942103F4CEF894FFCF9A
:10035000809145018823E1F380914101811104C01E
:100360000E944E048823A1F3A89580914101811138
:100370002FC061E471E080E091E00E94F0021092F1
:1003800040018091460181111AC090914101943041
:10039000B0F080E091E00E94BC0380910301809363
:1003A000440180914101845080934101809140013A
:1003B0008C5F8093400181E08093460104C08111ED
:1003C00002C01092410180914101882309F4C0CFFD
:1003D000E091400181E08E0F80934001F0E0E05019
:1003E000FF4F808190914101915090934101089578
:1003F000EF92FF920F931F93CF93DF938C01C62F41
:1004000080914301882331F081E00E944B0381E019
:10041000809343016EE780E00E94AC0361E082E0DC
:100420000E94AC030E94200485B18B7F85B980EACD
:100430000E94FE030AC078018FEFE81AF80AF8015B
:1004400080810E94FE03CD2F8701DFEFDC0FC111F9
:10045000F2CF85B1846085B98AE090E00E949C0368
:1004600085B1826085B9DF91CF911F910F91FF9087
:04047000EF9008956C
:10047400CF93DF9300D01F92CDB7DEB70E94D8038D
:100484000E947802892B61F581E08093450180E028
:1004940090E00E94340489838052813288F060E3C2
:1004A40080E090E00E94CA0360E381E090E00E9453
:1004B400CA0361E382E090E00E94CA0380E3898377
:1004C40081E090E00E9434048A8382E090E00E94FC
:1004D40034048B83CE0101960E9467040E94860334
:0C04E4000F900F900F90DF91CF910895C2
:1004F00084B1826084B984B1846084B988EC90E06E
:100500000E949C0385B18D7F85B985B1846085B9D2
:100510000E9462046FE784E00E94AC0384E00E94C2
:100520000A048F37F9F466E286E00E94AC0363E0C8
:100530008CE10E94AC0364E08DE10E94AC0360E7B3
:1005400087E00E94AC036AE285E00E94AC0361E0B0
:1005500083E00E94AC0363E081E00E94AC0380E092
:0A05600090E0089581E090E0089516
:10056A000F931F93CF93DF930E941604C82F88EC32
:10057A0090E00E949C0385B18D7F85B900E117E266
:10058A0007C08AE090E00E949C030E941604C82FCC
:10059A00DC2FD072C5FF02C0C0FF05C0C4FD03C076
:1005AA000150110971F760E387E00E94AC03809162
:1005BA004301882321F0109243010E948603DD2320
:1005CA0019F080E090E002C08FEF9FEFDF91CF91AA
:0605DA001F910F9108952E
:1005E000EF92FF920F931F93CF93DF938C017B01C8
:1005F00060E487E00E94AC030E94E503C82FF70186
:10060000808385B18B7F85B981E60E94FE030BC094
:100610007801FFEFEF1AFF0A80E00E94FE03F80165
:100620008083CD2F8701DFEFDC0FC111F1CF85B1C2
:10063000846085B9DF91CF911F910F91FF90EF906A
:0206400008951B
:10064200909146019923F9F0E091420191E09E0FC9
:1006520090934201F0E0E05EFE4F8083803121F012
:1006620080914401981315C080EA9FE00E949C0388
:100672006091420180E291E00E94F8010E94B5027D
:100682001092420108959091C00095FFFCCF809393
:04069200C600089501
:10069600CF93C82F80914301882371F088EC90E0B6
:1006A6000E949C0385B18D7F85B9C11110C06CE78E
:1006B60080E00E94AC030BC0CC2329F06EE780E0FB
:1006C6000E94AC0304C06CE780E00E94AC03109269
:0606D6004301CF910895DD
:1006DC00CF93DF93EB0195B19B7F95B980620E941C
:1006EC00FE0388810E94FE0389810E94FE038A8199
:1006FC000E94FE0385B1846085B9DF91CF91089586
:10070C0080914301811111C06FE70E94AC0362E03C
:10071C0082E00E94AC038AE090E00E949C0385B1C9
:0C072C00826085B981E08093430108954C
:1007380009C00000000000000000000000000000E8
:10074800A895C9019C0121503109892B91F7089579
:10075800CF93C62F95B19B7F95B980620E94FE0307
:100768008C2F0E94FE0385B1846085B9CF910895CE
:10077800CF93DF93EC01BC0180E10E946E03BE01C0
:0C0788008AE00E946E03DF91CF9108957B
:10079400262FF999FECF1FBA92BD81BD20BD0FB699
:0C07A400F894FA9AF99A0FBE0196089595
:1007B00084B1886284B984B18F7E84B984B1846045
:0A07C00084B980E00E943D04089512
:1007CA0085B18B7F85B980E60E94FE0380E00E9496
:0A07DA00FE0395B1946095B90895EF
:1007E400F999FECF92BD81BD60BD8FB384608FBB8C
:0807F4008FB382608FBB0895F2
:1007FC008EBD8FEF9FEF980F882321F0892F0DB4BA
:08080C0007FEF8CF8EB5089538
:1008140095B19B7F95B90E94FE0380E00E94FE0380
:0808240095B1946095B90895A7
:10082C0085B18B7F85B98FEF0E94FE0395B19460E3
:04083C0095B90895CD
:1008400085B18B7F85B981EE0E94FE0395B19460DE
:0408500095B90895B9
:100854000E94A801803211F00E94550484E10E9494
:0408640021030895CF
:10086800F999FECF92BD81BD8FB381608FBB80B5F2
:020878000895E1
:10087A001CBC8F7280658CBD81E08DBD8DB58EB537
:02088A000895CF
:10088C00C82F80E00E945C042C2EEE27FF270994D1
:0E089C0087E10E940A0491E089278170089587
:0E08AA0080E00E944B0388E00E945C04FFCFB8
:0C08B800E0E6F0E098E190838083089572
:0A08C40088E893E10E949C03089568
:0A08CE00BC018BE00E946E03089548
:0408D8000C9400007C
:0108DC0020FB
:00000001FF
