:100000000C9443000C9492040C9492040C9492046B
:100010000C9492040C9492040C9492040C94920408
:100020000C9492040C9492040C9492040C949204F8
:100030000C9492040C9492040C9492040C949204E8
:100040000C9492040C9492040C9492040C949204D8
:100050000C9492040C9492040C9492040C949204C8
:100060000C9492040C949204010001408001400120
:100070004100092801410145800145014600092947
:1000800001460148800011241FBECFEFD4E0DEBF3F
:10009000CDBFE8E6F0E040E017C0B591A5913591FD
:1000A0002591059107FD0CC095918591EF01F92FE0
:1000B000E82F05900D92A217B307D9F7FE0104C0EF
:1000C0001D92A217B307E1F7E538F40731F70E9454
:1000D0006B000C94AC01F894112484B714BE982FD3
:1000E0009D7011F00E946C0411E0A0E0B1E0ECE51D
:1000F000F3E002C005900D92A030B107D9F711E0EE
:10010000A0E0B1E001C01D92A030B107E1F78AB1D3
:1001100083608AB98BB18C7F8BB982E08093C000F9
:1001200088E18093C10086E08093C20088E08093DC
:10013000C4000E944F028EE00E94820400E010E0A2
:100140000E94AE018134A9F40E94AE01C82F0E9422
:100150005004C23821F480E00E940503F9C0C13880
:1001600021F485E00E940503F3C083E00E940503AB
:10017000EFC0823441F4C4E10E94AE01C150E1F706
:100180000E945004E5C0853441F4C5E00E94AE01F0
:10019000C150E1F70E945004DBC0853589F40E940C
:1001A000AE01C82FD0E00E94AE01082F10E0102F42
:1001B00000270C2B1D2B000F111F0E945004C8C0DC
:1001C000863559F4C4E00E94AE01C150E1F70E94A7
:1001D000500480E00E940503BBC0843609F077C05C
:1001E0000E94AE010E94AE01F82E0E94AE01E82EE0
:1001F00086E4E8120BC00115E8E31E0750F483E023
:10020000F80187BFE895C0E8D1E005C0C0E8D1E0BB
:1002100002C0C0E8D1E06E01FFEFCF1ADF0A0E94F2
:10022000AE018883FA94E601F110F5CF86E4E81276
:100230002FC00115E8E31E0720F083E0F80187BF17
:10024000E8950E94500407B600FCFDCFF801A0E835
:10025000B1E020E43C91AD014E5F5F4F11968C916F
:1002600090E0982F8827832B31E00C0137BFE89569
:10027000112432962150DA0169F785E0F80187BF31
:10028000E89507B600FCFDCF81E187BFE89560C027
:10029000F5E4EF125DC00E94500490E89C0D9801B7
:1002A000E0E8F1E00EC0A895EF01219679018FEF0B
:1002B000E81AF80A6081C9010E9418049D2D97016F
:1002C000FE01DD24DA94D90E9111EDCF41C08437BF
:1002D00039F50E94AE010E94AE01C82F0E94AE0106
:1002E000D82F0E945004D63441F4F80185918F0133
:1002F0000E940503C150C9F72BC0D53449F50BC086
:100300007801EFEFEE1AFE0AC8010E945A040E941B
:100310000503CD2F8701DFEFDC0FC111F1CF18C02E
:10032000853761F40E9450048EE10E94050384E940
:100330000E94050386E00E9405030AC0813531F45E
:1003400088E00E9482040E94500402C00E9450046F
:0C03500080E10E940503F4CEF894FFCF7A
:10035C00809146018823E1F380914201811104C010
:10036C000E9474048823A1F3A89580914201811105
:10037C003EC062E471E080E091E00E94400381E0C5
:10038C00809341018091470181111AC090914201E3
:10039C009430B0F080E091E00E94E2038091030180
:1003AC008093450180914201845080934201809159
:1003BC0041018C5F8093410181E08093470104C02F
:1003CC00811102C01092420180914201882309F4EC
:1003DC00BFCF9091000120914001921303C0109265
:1003EC004201B6CF90934001815080934201E0913D
:1003FC00410181E08E0F80934101F0E0E050FF4F0E
:0E040C00808190914201915090934201089599
:10041A00EF92FF920F931F93CF93DF938C01C62F16
:10042A0080914401882331F081E00E94710381E0C8
:10043A00809344016EE780E00E94D20361E082E08B
:10044A000E94D2030E94460485B18B7F85B980EA57
:10045A000E9424040AC078018FEFE81AF80AF8010A
:10046A0080810E942404CD2F8701DFEFDC0FC111A8
:10047A00F2CF85B1846085B98AE090E00E94C20318
:10048A0085B1826085B9DF91CF911F910F91FF905D
:04049A00EF90089542
:10049E00CF93DF9300D01F92CDB7DEB70E94FE033D
:1004AE000E948D02892B61F581E08093460180E0E8
:1004BE0090E00E945A0489838052813288F060E372
:1004CE0080E090E00E94F00360E381E090E00E9403
:1004DE00F00361E382E090E00E94F00380E3898301
:1004EE0081E090E00E945A048A8382E090E00E94AC
:1004FE005A048B83CE0101960E948D040E94AC0398
:0C050E000F900F900F90DF91CF91089597
:10051A0084B1826084B984B1846084B988EC90E043
:10052A000E94C20385B18D7F85B985B1846085B982
:10053A000E9488046FE784E00E94D20384E00E944C
:10054A0030048F37F9F466E286E00E94D20363E052
:10055A008CE10E94D20364E08DE10E94D20360E73D
:10056A0087E00E94D2036AE285E00E94D20361E03A
:10057A0083E00E94D20363E081E00E94D20380E01C
:0A058A0090E0089581E090E00895EC
:100594000F931F93CF93DF930E943C04C82F88ECE2
:1005A40090E00E94C20385B18D7F85B900E117E216
:1005B40007C08AE090E00E94C2030E943C04C82F56
:1005C400DC2FD072C5FF02C0C0FF05C0C4FD03C04C
:1005D4000150110971F760E387E00E94D203809112
:1005E4004401882321F0109244010E94AC03DD23CE
:1005F40019F080E090E002C08FEF9FEFDF91CF9180
:060604001F910F91089503
:10060A00CF9390914701992371F1E091430191E0D1
:10061A009E0F90934301F0E0E05EFE4F80838031AD
:10062A00A1F080914501981324C011C080EA9FE08F
:10063A000E94C2036091430180E291E00E940D0290
:10064A000E94CA02892B21F405C0C0E801C0C0E893
:10065A00C15061F781E080934301E0E2F1E08081DB
:10066A008F5F808306C09091C00095FFFCCF809376
:06067A00C600CF910895B7
:10068000EF92FF920F931F93CF93DF938C017B0127
:1006900060E487E00E94D2030E940B04C82FF70198
:1006A000808385B18B7F85B981E60E9424040BC0CD
:1006B0007801FFEFEF1AFF0A80E00E942404F8019E
:1006C0008083CD2F8701DFEFDC0FC111F1CF85B122
:1006D000846085B9DF91CF911F910F91FF90EF90CA
:0206E00008957B
:1006E200CF93C82F80914401882371F088EC90E069
:1006F2000E94C20385B18D7F85B9C11110C06CE71C
:1007020080E00E94D2030BC0CC2329F06EE780E088
:100712000E94D20304C06CE780E00E94D2031092D0
:060722004401CF9108958F
:10072800CF93DF93EB0195B19B7F95B980620E94CF
:10073800240488810E94240489810E9424048A81D7
:100748000E94240485B1846085B9DF91CF91089512
:1007580080914401811111C06FE70E94D20362E0C9
:1007680082E00E94D2038AE090E00E94C20385B131
:0C077800826085B981E0809344010895FF
:1007840009C000000000000000000000000000009C
:10079400A895C9019C0121503109892B91F708952D
:1007A400CF93C62F95B19B7F95B980620E94240494
:1007B4008C2F0E94240485B1846085B9CF9108955B
:1007C400CF93DF93EC01BC0180E10E949403BE014E
:0C07D4008AE00E949403DF91CF91089509
:1007E000262FF999FECF1FBA92BD81BD20BD0FB64D
:0C07F000F894FA9AF99A0FBE0196089549
:1007FC0084B1886284B984B18F7E84B984B18460F9
:0A080C0084B980E00E94630408959F
:1008160085B18B7F85B980E60E94240480E00E9422
:0A082600240495B1946095B908957B
:10083000F999FECF92BD81BD60BD8FB384608FBB3F
:080840008FB382608FBB0895A5
:100848008EBD8FEF9FEF980F882321F0892F0DB46D
:0808580007FEF8CF8EB50895EC
:1008600095B19B7F95B90E94240480E00E942404E6
:0808700095B1946095B908955B
:1008780085B18B7F85B98FEF0E94240495B1946070
:0408880095B9089581
:10088C0085B18B7F85B981EE0E94240495B194606B
:04089C0095B908956D
:1008A0000E94AE01803211F00E947B0484E10E941C
:0408B000050308959F
:1008B400F999FECF92BD81BD8FB381608FBB80B5A6
:0208C400089595
:1008C6001CBC8F7280658CBD81E08DBD8DB58EB5EB
:0208D600089583
:1008D800C82F80E00E9482042C2EEE27FF2709945F
:0E08E80087E10E94300491E089278170089515
:0E08F60080E00E94710388E00E948204FFCF20
:0C090400E0E6F0E098E190838083089525
:0A09100088E893E10E94C2030895F5
:0A091A00BC018BE00E9494030895D5
:040924000C9400002F
:01092800FFCF
:0109290020AD
:00000001FF
