:1038000000D00F92CDB7DEB7F89411248FED94E07D
:103810009EBF8DBFCDB7DEB784B714BE83FF18C07F
:103820004091EC045091ED046091EE047091EF042E
:103830004F3E5E4B6D4A7E4D59F41092EC0410924F
:10384000ED041092EE041092EF048091EB0415D376
:103850008093EB048FEE9EEBADEABEED8093EC041B
:103860009093ED04A093EE04B093EF0411E0A0E078
:10387000B1E0EEE8FEE302C005900D92A230B10780
:10388000D9F711E0A2E0B1E001C01D92A834B10760
:10389000E1F78AB183608AB98BB18C7F8BB982E002
:1038A0008093C00088E18093C10086E08093C200CD
:1038B00088E08093C40084B1886284B92498229AF5
:1038C0001CBC80E58CBD01E00DBD8DB58EB5219A87
:1038D000229A80E04FD14CD188E893E13DD16FE747
:1038E00084E056D153D184E02DD180E02BD1182F24
:1038F0003FD11F3709F03AC066E286E049D163E064
:103900008CE146D164E08DE143D160E787E040D1AE
:103910006AE285E03DD161E083E03AD163E081E095
:1039200037D10093460190E080E005D18983805231
:10393000813270F060E390E080E0F5D060E381E0F8
:1039400090E0F1D061E382E090E0EDD080E3898304
:1039500081E090E0F0D08A8382E090E0ECD08B832D
:10396000BE016F5F7F4F8BE02FD11FD188E1809325
:1039700060008EE08093600010E000E038E1432EAC
:1039800048E0A42E9924939455E0852E61E1562EAB
:1039900073E0B72EB6D1813481F4B3D1F82E5AD268
:1039A00082E8F81202C080E004C091E885E0F912D4
:1039B00083E01DD180E11BD1EDCF823419F484E185
:1039C0004FD2F8CF853411F485E0FACF853549F42C
:1039D00098D1082F10E095D1182B000F111F3AD263
:1039E000E9CF863519F484E03BD2DDCF843609F087
:1039F00063C087D186D1E82E84D1382EE6E48E13B9
:103A000007C00115F8E31F0718F4F801B7BEE895E1
:103A100080E8C82EDD24D39490E8F92EFE0C360100
:103A2000FFEFCF1ADF0A6DD1F3018083FC10F7CFCF
:103A3000EA94F12CF6E43F1224C0011528E31207A2
:103A400018F0F801B7BEE89505D207B600FCFDCF27
:103A5000F80180E891E0DC012D913C9111970296EC
:103A6000090197BEE89511243296AE3FB14099F70F
:103A7000F80187BEE89507B600FCFDCF57BEE89574
:103A800099CFF5E43F1296CFE5D12FEFE21AF20A73
:103A9000FF24D12CC12CC8018C0D9D1DF601E058CE
:103AA000FE4FCE14DF0409F485CFA89560813BD08A
:103AB0008FEFC81AD80AEFCF843721F522D121D150
:103AC000D82E1FD1F82EC6D196E4F91208C0F801FD
:103AD00085918F018CD0DA94D110F9CF6BCFE5E4CA
:103AE000FE1268CFC801CD2CC00E07C07C01FFEFCD
:103AF000EF1AFF0A20D07BD0C701C812F7CF0D0DF7
:103B0000111D58CF853739F4A5D18EE170D084E9E5
:103B10006ED086E04ECF813509F061CF40926000D3
:103B2000A09260005CCFF999FECF92BD81BD60BDCF
:103B3000FA9AF99A0895F999FECF92BD81BDF89A43
:103B400080B508958EBD8FEF81500DB407FC02C083
:103B50008111FACF8EB50895019708F408950000F9
:103B6000000000000000000000000000A895F4CF55
:103B70002A9A0895882329F08AE090E0EDDF299AB7
:103B8000089588EC90E0E8DF299808952A98089530
:103B9000CF93DF93D82FC62FF9DF8D2F8062D2DF2E
:103BA0008C2FD0DFDF91CF91E3CF80914501811140
:103BB0000AC06FE7EDDF62E082E0EADF81E0DADF92
:103BC00081E08093450108951F93CF93DF93182FD1
:103BD000EB01DCDF812F8062B5DF8881B3DF898173
:103BE000B1DF8A81AFDFDF91CF911F91C1CFDF922B
:103BF000EF92FF920F931F93CF93DF939091470122
:103C0000992309F477C0E091440101E00E0F00937D
:103C10004401F0E0EC5DFE4F8083803121F0809123
:103C20000101081352C010E8DD24D394115009F4A7
:103C300044C080EA9FE090DF80914501882321F015
:103C400080E098DFD09245016EE780E0A1DF61E07F
:103C500082E09EDF9BDF81EE75DF8ADF97DF80EAFF
:103C600071DFF02EC4E2D1E0F11037C081DF81E0D6
:103C700081DF8CDF8FEF66DFC82F7ADF80E07ADFAD
:103C800080E1E82E87E2F82EDC2FD072C5FF02C05B
:103C9000C0FF06C0C4FD04C081E0E81AF10809F5C0
:103CA00060E387E075DF80914501882319F0109269
:103CB00045017BDFDD2309F4B9CF81E08093440126
:103CC000809124018F5F80932401DF91CF911F9118
:103CD0000F91FF90EF90DF900895899133DFFA9470
:103CE000C3CF8AE090E038DF51DF8FEF2BDFC82FA2
:103CF0003FDFCACF9091C00095FFFCCF8093C600F4
:103D0000E4CFDF92EF92FF920F931F93CF93DF9355
:103D100083E0E82E81E0F82E01E095E0D92E809135
:103D200046019091C00097FF0FC08091C00084FDB4
:103D300001C0A8958091C600DF91CF911F910F918E
:103D4000FF90EF90DF900895882359F3809123012D
:103D50008823A9F0A895809123018823D1F0E091D0
:103D6000020181E08E0F80930201F0E0ED5FFE4FD3
:103D7000808190912301915090932301DDCF06DF44
:103D800087E1E0DE80E0DEDEC82FF2DEC0FFE2CFBA
:103D9000C6CF60E487E0FCDEF9DE80E6D3DE80E0BB
:103DA000D1DE182FE5DE10932301F0DE81E6CADEB6
:103DB000C3E0D1E01E0D1C132EC0DADE0093020119
:103DC00080914701811119C080912301843038F11D
:103DD00063E071E080E1F8DE63E071E08AE0F4DE48
:103DE000809106018093010180912301845080938A
:103DF0002301D0920201009347018091230188237F
:103E000009F48DCF909103012091000192130AC013
:103E10001092230184CF80E095DE8993CCCF10925D
:103E20002301EBCF9093000181508093230197CF22
:103E300080914501882311F080E09CDE6CE780E0F2
:103E4000A7DE1092450188E18093600088E08093AE
:103E50006000FFCF56DF803209F0EADF84E1C7CE91
:103E6000CF93C82F4EDFC150E9F7CF91F3CFE0E6F3
:103E7000F0E098E1908380830895E0E6F0E098E137
:0E3E8000908398E29083282EEE27FF27099466
:023E8E00FF2013
:023FFE000005BC
:0400000300003800C1
:00000001FF
